{
  "contractName": "BookStore",
  "abi": [
    {
      "inputs": [],
      "stateMutability": "nonpayable",
      "type": "constructor"
    },
    {
      "anonymous": false,
      "inputs": [
        {
          "indexed": true,
          "internalType": "address",
          "name": "account",
          "type": "address"
        },
        {
          "indexed": true,
          "internalType": "address",
          "name": "operator",
          "type": "address"
        },
        {
          "indexed": false,
          "internalType": "bool",
          "name": "approved",
          "type": "bool"
        }
      ],
      "name": "ApprovalForAll",
      "type": "event"
    },
    {
      "anonymous": false,
      "inputs": [
        {
          "indexed": true,
          "internalType": "address",
          "name": "operator",
          "type": "address"
        },
        {
          "indexed": true,
          "internalType": "address",
          "name": "from",
          "type": "address"
        },
        {
          "indexed": true,
          "internalType": "address",
          "name": "to",
          "type": "address"
        },
        {
          "indexed": false,
          "internalType": "uint256[]",
          "name": "ids",
          "type": "uint256[]"
        },
        {
          "indexed": false,
          "internalType": "uint256[]",
          "name": "values",
          "type": "uint256[]"
        }
      ],
      "name": "TransferBatch",
      "type": "event"
    },
    {
      "anonymous": false,
      "inputs": [
        {
          "indexed": true,
          "internalType": "address",
          "name": "operator",
          "type": "address"
        },
        {
          "indexed": true,
          "internalType": "address",
          "name": "from",
          "type": "address"
        },
        {
          "indexed": true,
          "internalType": "address",
          "name": "to",
          "type": "address"
        },
        {
          "indexed": false,
          "internalType": "uint256",
          "name": "id",
          "type": "uint256"
        },
        {
          "indexed": false,
          "internalType": "uint256",
          "name": "value",
          "type": "uint256"
        }
      ],
      "name": "TransferSingle",
      "type": "event"
    },
    {
      "anonymous": false,
      "inputs": [
        {
          "indexed": false,
          "internalType": "string",
          "name": "value",
          "type": "string"
        },
        {
          "indexed": true,
          "internalType": "uint256",
          "name": "id",
          "type": "uint256"
        }
      ],
      "name": "URI",
      "type": "event"
    },
    {
      "inputs": [
        {
          "internalType": "address",
          "name": "account",
          "type": "address"
        },
        {
          "internalType": "uint256",
          "name": "id",
          "type": "uint256"
        }
      ],
      "name": "balanceOf",
      "outputs": [
        {
          "internalType": "uint256",
          "name": "",
          "type": "uint256"
        }
      ],
      "stateMutability": "view",
      "type": "function",
      "constant": true
    },
    {
      "inputs": [
        {
          "internalType": "address[]",
          "name": "accounts",
          "type": "address[]"
        },
        {
          "internalType": "uint256[]",
          "name": "ids",
          "type": "uint256[]"
        }
      ],
      "name": "balanceOfBatch",
      "outputs": [
        {
          "internalType": "uint256[]",
          "name": "",
          "type": "uint256[]"
        }
      ],
      "stateMutability": "view",
      "type": "function",
      "constant": true
    },
    {
      "inputs": [
        {
          "internalType": "address",
          "name": "account",
          "type": "address"
        },
        {
          "internalType": "address",
          "name": "operator",
          "type": "address"
        }
      ],
      "name": "isApprovedForAll",
      "outputs": [
        {
          "internalType": "bool",
          "name": "",
          "type": "bool"
        }
      ],
      "stateMutability": "view",
      "type": "function",
      "constant": true
    },
    {
      "inputs": [
        {
          "internalType": "address",
          "name": "from",
          "type": "address"
        },
        {
          "internalType": "address",
          "name": "to",
          "type": "address"
        },
        {
          "internalType": "uint256[]",
          "name": "ids",
          "type": "uint256[]"
        },
        {
          "internalType": "uint256[]",
          "name": "amounts",
          "type": "uint256[]"
        },
        {
          "internalType": "bytes",
          "name": "data",
          "type": "bytes"
        }
      ],
      "name": "safeBatchTransferFrom",
      "outputs": [],
      "stateMutability": "nonpayable",
      "type": "function"
    },
    {
      "inputs": [
        {
          "internalType": "address",
          "name": "from",
          "type": "address"
        },
        {
          "internalType": "address",
          "name": "to",
          "type": "address"
        },
        {
          "internalType": "uint256",
          "name": "id",
          "type": "uint256"
        },
        {
          "internalType": "uint256",
          "name": "amount",
          "type": "uint256"
        },
        {
          "internalType": "bytes",
          "name": "data",
          "type": "bytes"
        }
      ],
      "name": "safeTransferFrom",
      "outputs": [],
      "stateMutability": "nonpayable",
      "type": "function"
    },
    {
      "inputs": [
        {
          "internalType": "address",
          "name": "operator",
          "type": "address"
        },
        {
          "internalType": "bool",
          "name": "approved",
          "type": "bool"
        }
      ],
      "name": "setApprovalForAll",
      "outputs": [],
      "stateMutability": "nonpayable",
      "type": "function"
    },
    {
      "inputs": [
        {
          "internalType": "bytes4",
          "name": "interfaceId",
          "type": "bytes4"
        }
      ],
      "name": "supportsInterface",
      "outputs": [
        {
          "internalType": "bool",
          "name": "",
          "type": "bool"
        }
      ],
      "stateMutability": "view",
      "type": "function",
      "constant": true
    },
    {
      "inputs": [
        {
          "internalType": "uint256",
          "name": "",
          "type": "uint256"
        }
      ],
      "name": "uri",
      "outputs": [
        {
          "internalType": "string",
          "name": "",
          "type": "string"
        }
      ],
      "stateMutability": "view",
      "type": "function",
      "constant": true
    },
    {
      "inputs": [
        {
          "internalType": "address",
          "name": "_storeFrontAddress",
          "type": "address"
        }
      ],
      "name": "setStoreFront",
      "outputs": [],
      "stateMutability": "nonpayable",
      "type": "function"
    },
    {
      "inputs": [
        {
          "internalType": "uint256",
          "name": "_quantity",
          "type": "uint256"
        },
        {
          "internalType": "uint256",
          "name": "_price",
          "type": "uint256"
        },
        {
          "internalType": "address",
          "name": "_currency",
          "type": "address"
        }
      ],
      "name": "publish",
      "outputs": [],
      "stateMutability": "nonpayable",
      "type": "function"
    },
    {
      "inputs": [
        {
          "internalType": "address",
          "name": "_buyer",
          "type": "address"
        },
        {
          "internalType": "uint256",
          "name": "_bookVersionId",
          "type": "uint256"
        }
      ],
      "name": "transferFromAuthor",
      "outputs": [],
      "stateMutability": "nonpayable",
      "type": "function"
    },
    {
      "inputs": [
        {
          "internalType": "uint256",
          "name": "_bookVersionId",
          "type": "uint256"
        }
      ],
      "name": "book_version_price",
      "outputs": [
        {
          "internalType": "uint256",
          "name": "",
          "type": "uint256"
        }
      ],
      "stateMutability": "view",
      "type": "function",
      "constant": true
    },
    {
      "inputs": [
        {
          "internalType": "uint256",
          "name": "_bookVersionId",
          "type": "uint256"
        }
      ],
      "name": "book_version_currency",
      "outputs": [
        {
          "internalType": "address",
          "name": "",
          "type": "address"
        }
      ],
      "stateMutability": "view",
      "type": "function",
      "constant": true
    },
    {
      "inputs": [
        {
          "internalType": "uint256",
          "name": "_bookVersionId",
          "type": "uint256"
        }
      ],
      "name": "book_version_Author",
      "outputs": [
        {
          "internalType": "address",
          "name": "",
          "type": "address"
        }
      ],
      "stateMutability": "view",
      "type": "function",
      "constant": true
    }
  ],
  "bytecode": "0x60806040523480156200001157600080fd5b50604051806060016040528060218152602001620030fd602191396200003d816200008d60201b60201c565b50600160038190555033600660006101000a81548173ffffffffffffffffffffffffffffffffffffffff021916908373ffffffffffffffffffffffffffffffffffffffff160217905550620001bd565b8060029080519060200190620000a5929190620000a9565b5050565b828054620000b79062000188565b90600052602060002090601f016020900481019282620000db576000855562000127565b82601f10620000f657805160ff191683800117855562000127565b8280016001018555821562000127579182015b828111156200012657825182559160200191906001019062000109565b5b5090506200013691906200013a565b5090565b5b80821115620001555760008160009055506001016200013b565b5090565b7f4e487b7100000000000000000000000000000000000000000000000000000000600052602260045260246000fd5b60006002820490506001821680620001a157607f821691505b602082108103620001b757620001b662000159565b5b50919050565b612f3080620001cd6000396000f3fe608060405234801561001057600080fd5b50600436106100e95760003560e01c80638b710ab01161008c578063a22cb46511610066578063a22cb4651461027e578063d3cbe6d71461029a578063e985e9c5146102ca578063f242432a146102fa576100e9565b80638b710ab014610216578063986402fb1461023257806398e6937514610262576100e9565b80632eb2c2d6116100c85780632eb2c2d61461017e57806330c4dff21461019a5780633f9a9461146101b65780634e1273f4146101e6576100e9565b8062fdd58e146100ee57806301ffc9a71461011e5780630e89341c1461014e575b600080fd5b61010860048036038101906101039190611adb565b610316565b6040516101159190611b2a565b60405180910390f35b61013860048036038101906101339190611b9d565b6103de565b6040516101459190611be5565b60405180910390f35b61016860048036038101906101639190611c00565b6104c0565b6040516101759190611cc6565b60405180910390f35b61019860048036038101906101939190611ee5565b610554565b005b6101b460048036038101906101af9190611fb4565b6105f5565b005b6101d060048036038101906101cb9190611c00565b6106c9565b6040516101dd9190611ff0565b60405180910390f35b61020060048036038101906101fb91906120ce565b610709565b60405161020d9190612204565b60405180910390f35b610230600480360381019061022b9190611adb565b610822565b005b61024c60048036038101906102479190611c00565b6109b0565b6040516102599190611b2a565b60405180910390f35b61027c60048036038101906102779190612226565b6109d0565b005b610298600480360381019061029391906122a5565b610b03565b005b6102b460048036038101906102af9190611c00565b610b19565b6040516102c19190611ff0565b60405180910390f35b6102e460048036038101906102df91906122e5565b610b59565b6040516102f19190611be5565b60405180910390f35b610314600480360381019061030f9190612325565b610bed565b005b60008073ffffffffffffffffffffffffffffffffffffffff168373ffffffffffffffffffffffffffffffffffffffff1603610386576040517f08c379a000000000000000000000000000000000000000000000000000000000815260040161037d9061242e565b60405180910390fd5b60008083815260200190815260200160002060008473ffffffffffffffffffffffffffffffffffffffff1673ffffffffffffffffffffffffffffffffffffffff16815260200190815260200160002054905092915050565b60007fd9b67a26000000000000000000000000000000000000000000000000000000007bffffffffffffffffffffffffffffffffffffffffffffffffffffffff1916827bffffffffffffffffffffffffffffffffffffffffffffffffffffffff191614806104a957507f0e89341c000000000000000000000000000000000000000000000000000000007bffffffffffffffffffffffffffffffffffffffffffffffffffffffff1916827bffffffffffffffffffffffffffffffffffffffffffffffffffffffff1916145b806104b957506104b882610c8e565b5b9050919050565b6060600280546104cf9061247d565b80601f01602080910402602001604051908101604052809291908181526020018280546104fb9061247d565b80156105485780601f1061051d57610100808354040283529160200191610548565b820191906000526020600020905b81548152906001019060200180831161052b57829003601f168201915b50505050509050919050565b61055c610cf8565b73ffffffffffffffffffffffffffffffffffffffff168573ffffffffffffffffffffffffffffffffffffffff1614806105a257506105a18561059c610cf8565b610b59565b5b6105e1576040517f08c379a00000000000000000000000000000000000000000000000000000000081526004016105d890612520565b60405180910390fd5b6105ee8585858585610d00565b5050505050565b600660009054906101000a900473ffffffffffffffffffffffffffffffffffffffff1673ffffffffffffffffffffffffffffffffffffffff163373ffffffffffffffffffffffffffffffffffffffff1614610685576040517f08c379a000000000000000000000000000000000000000000000000000000000815260040161067c906125b2565b60405180910390fd5b80600460006101000a81548173ffffffffffffffffffffffffffffffffffffffff021916908373ffffffffffffffffffffffffffffffffffffffff16021790555050565b60006005600083815260200190815260200160002060010160009054906101000a900473ffffffffffffffffffffffffffffffffffffffff169050919050565b6060815183511461074f576040517f08c379a000000000000000000000000000000000000000000000000000000000815260040161074690612644565b60405180910390fd5b6000835167ffffffffffffffff81111561076c5761076b611ced565b5b60405190808252806020026020018201604052801561079a5781602001602082028036833780820191505090505b50905060005b8451811015610817576107e78582815181106107bf576107be612664565b5b60200260200101518583815181106107da576107d9612664565b5b6020026020010151610316565b8282815181106107fa576107f9612664565b5b60200260200101818152505080610810906126c2565b90506107a0565b508091505092915050565b600460009054906101000a900473ffffffffffffffffffffffffffffffffffffffff1673ffffffffffffffffffffffffffffffffffffffff163373ffffffffffffffffffffffffffffffffffffffff16146108b2576040517f08c379a00000000000000000000000000000000000000000000000000000000081526004016108a99061277c565b60405180910390fd5b600060056000838152602001908152602001600020604051806060016040529081600082015481526020016001820160009054906101000a900473ffffffffffffffffffffffffffffffffffffffff1673ffffffffffffffffffffffffffffffffffffffff1673ffffffffffffffffffffffffffffffffffffffff1681526020016002820160009054906101000a900473ffffffffffffffffffffffffffffffffffffffff1673ffffffffffffffffffffffffffffffffffffffff1673ffffffffffffffffffffffffffffffffffffffff168152505090506109ab81604001518484600160405180602001604052806000815250610bed565b505050565b600060056000838152602001908152602001600020600001549050919050565b6109ed336003548560405180602001604052806000815250611021565b60405180606001604052808381526020018273ffffffffffffffffffffffffffffffffffffffff1681526020013373ffffffffffffffffffffffffffffffffffffffff168152506005600060035481526020019081526020016000206000820151816000015560208201518160010160006101000a81548173ffffffffffffffffffffffffffffffffffffffff021916908373ffffffffffffffffffffffffffffffffffffffff16021790555060408201518160020160006101000a81548173ffffffffffffffffffffffffffffffffffffffff021916908373ffffffffffffffffffffffffffffffffffffffff160217905550905050600160036000828254610af7919061279c565b92505081905550505050565b610b15610b0e610cf8565b83836111d1565b5050565b60006005600083815260200190815260200160002060020160009054906101000a900473ffffffffffffffffffffffffffffffffffffffff169050919050565b6000600160008473ffffffffffffffffffffffffffffffffffffffff1673ffffffffffffffffffffffffffffffffffffffff16815260200190815260200160002060008373ffffffffffffffffffffffffffffffffffffffff1673ffffffffffffffffffffffffffffffffffffffff16815260200190815260200160002060009054906101000a900460ff16905092915050565b610bf5610cf8565b73ffffffffffffffffffffffffffffffffffffffff168573ffffffffffffffffffffffffffffffffffffffff161480610c3b5750610c3a85610c35610cf8565b610b59565b5b610c7a576040517f08c379a0000000000000000000000000000000000000000000000000000000008152600401610c7190612864565b60405180910390fd5b610c87858585858561133d565b5050505050565b60007f01ffc9a7000000000000000000000000000000000000000000000000000000007bffffffffffffffffffffffffffffffffffffffffffffffffffffffff1916827bffffffffffffffffffffffffffffffffffffffffffffffffffffffff1916149050919050565b600033905090565b8151835114610d44576040517f08c379a0000000000000000000000000000000000000000000000000000000008152600401610d3b906128f6565b60405180910390fd5b600073ffffffffffffffffffffffffffffffffffffffff168473ffffffffffffffffffffffffffffffffffffffff1603610db3576040517f08c379a0000000000000000000000000000000000000000000000000000000008152600401610daa90612988565b60405180910390fd5b6000610dbd610cf8565b9050610dcd8187878787876115d8565b60005b8451811015610f7e576000858281518110610dee57610ded612664565b5b602002602001015190506000858381518110610e0d57610e0c612664565b5b60200260200101519050600080600084815260200190815260200160002060008b73ffffffffffffffffffffffffffffffffffffffff1673ffffffffffffffffffffffffffffffffffffffff16815260200190815260200160002054905081811015610eae576040517f08c379a0000000000000000000000000000000000000000000000000000000008152600401610ea590612a1a565b60405180910390fd5b81810360008085815260200190815260200160002060008c73ffffffffffffffffffffffffffffffffffffffff1673ffffffffffffffffffffffffffffffffffffffff168152602001908152602001600020819055508160008085815260200190815260200160002060008b73ffffffffffffffffffffffffffffffffffffffff1673ffffffffffffffffffffffffffffffffffffffff1681526020019081526020016000206000828254610f63919061279c565b9250508190555050505080610f77906126c2565b9050610dd0565b508473ffffffffffffffffffffffffffffffffffffffff168673ffffffffffffffffffffffffffffffffffffffff168273ffffffffffffffffffffffffffffffffffffffff167f4a39dc06d4c0dbc64b70af90fd698a233a518aa5d07e595d983b8c0526c8f7fb8787604051610ff5929190612a3a565b60405180910390a461100b8187878787876115e0565b6110198187878787876115e8565b505050505050565b600073ffffffffffffffffffffffffffffffffffffffff168473ffffffffffffffffffffffffffffffffffffffff1603611090576040517f08c379a000000000000000000000000000000000000000000000000000000000815260040161108790612ae3565b60405180910390fd5b600061109a610cf8565b905060006110a7856117bf565b905060006110b4856117bf565b90506110c5836000898585896115d8565b8460008088815260200190815260200160002060008973ffffffffffffffffffffffffffffffffffffffff1673ffffffffffffffffffffffffffffffffffffffff1681526020019081526020016000206000828254611124919061279c565b925050819055508673ffffffffffffffffffffffffffffffffffffffff16600073ffffffffffffffffffffffffffffffffffffffff168473ffffffffffffffffffffffffffffffffffffffff167fc3d58168c5ae7397731d063d5bbf3d657854427343f4c083240f7aacaa2d0f6289896040516111a2929190612b03565b60405180910390a46111b9836000898585896115e0565b6111c883600089898989611839565b50505050505050565b8173ffffffffffffffffffffffffffffffffffffffff168373ffffffffffffffffffffffffffffffffffffffff160361123f576040517f08c379a000000000000000000000000000000000000000000000000000000000815260040161123690612b9e565b60405180910390fd5b80600160008573ffffffffffffffffffffffffffffffffffffffff1673ffffffffffffffffffffffffffffffffffffffff16815260200190815260200160002060008473ffffffffffffffffffffffffffffffffffffffff1673ffffffffffffffffffffffffffffffffffffffff16815260200190815260200160002060006101000a81548160ff0219169083151502179055508173ffffffffffffffffffffffffffffffffffffffff168373ffffffffffffffffffffffffffffffffffffffff167f17307eab39ab6107e8899845ad3d59bd9653f200f220920489ca2b5937696c31836040516113309190611be5565b60405180910390a3505050565b600073ffffffffffffffffffffffffffffffffffffffff168473ffffffffffffffffffffffffffffffffffffffff16036113ac576040517f08c379a00000000000000000000000000000000000000000000000000000000081526004016113a390612988565b60405180910390fd5b60006113b6610cf8565b905060006113c3856117bf565b905060006113d0856117bf565b90506113e08389898585896115d8565b600080600088815260200190815260200160002060008a73ffffffffffffffffffffffffffffffffffffffff1673ffffffffffffffffffffffffffffffffffffffff16815260200190815260200160002054905085811015611477576040517f08c379a000000000000000000000000000000000000000000000000000000000815260040161146e90612a1a565b60405180910390fd5b85810360008089815260200190815260200160002060008b73ffffffffffffffffffffffffffffffffffffffff1673ffffffffffffffffffffffffffffffffffffffff168152602001908152602001600020819055508560008089815260200190815260200160002060008a73ffffffffffffffffffffffffffffffffffffffff1673ffffffffffffffffffffffffffffffffffffffff168152602001908152602001600020600082825461152c919061279c565b925050819055508773ffffffffffffffffffffffffffffffffffffffff168973ffffffffffffffffffffffffffffffffffffffff168573ffffffffffffffffffffffffffffffffffffffff167fc3d58168c5ae7397731d063d5bbf3d657854427343f4c083240f7aacaa2d0f628a8a6040516115a9929190612b03565b60405180910390a46115bf848a8a86868a6115e0565b6115cd848a8a8a8a8a611839565b505050505050505050565b505050505050565b505050505050565b6116078473ffffffffffffffffffffffffffffffffffffffff16611a10565b156117b7578373ffffffffffffffffffffffffffffffffffffffff1663bc197c8187878686866040518663ffffffff1660e01b815260040161164d959493929190612c13565b6020604051808303816000875af192505050801561168957506040513d601f19601f820116820180604052508101906116869190612c90565b60015b61172e57611695612cca565b806308c379a0036116f157506116a9612cec565b806116b457506116f3565b806040517f08c379a00000000000000000000000000000000000000000000000000000000081526004016116e89190611cc6565b60405180910390fd5b505b6040517f08c379a000000000000000000000000000000000000000000000000000000000815260040161172590612dee565b60405180910390fd5b63bc197c8160e01b7bffffffffffffffffffffffffffffffffffffffffffffffffffffffff1916817bffffffffffffffffffffffffffffffffffffffffffffffffffffffff1916146117b5576040517f08c379a00000000000000000000000000000000000000000000000000000000081526004016117ac90612e80565b60405180910390fd5b505b505050505050565b60606000600167ffffffffffffffff8111156117de576117dd611ced565b5b60405190808252806020026020018201604052801561180c5781602001602082028036833780820191505090505b509050828160008151811061182457611823612664565b5b60200260200101818152505080915050919050565b6118588473ffffffffffffffffffffffffffffffffffffffff16611a10565b15611a08578373ffffffffffffffffffffffffffffffffffffffff1663f23a6e6187878686866040518663ffffffff1660e01b815260040161189e959493929190612ea0565b6020604051808303816000875af19250505080156118da57506040513d601f19601f820116820180604052508101906118d79190612c90565b60015b61197f576118e6612cca565b806308c379a00361194257506118fa612cec565b806119055750611944565b806040517f08c379a00000000000000000000000000000000000000000000000000000000081526004016119399190611cc6565b60405180910390fd5b505b6040517f08c379a000000000000000000000000000000000000000000000000000000000815260040161197690612dee565b60405180910390fd5b63f23a6e6160e01b7bffffffffffffffffffffffffffffffffffffffffffffffffffffffff1916817bffffffffffffffffffffffffffffffffffffffffffffffffffffffff191614611a06576040517f08c379a00000000000000000000000000000000000000000000000000000000081526004016119fd90612e80565b60405180910390fd5b505b505050505050565b6000808273ffffffffffffffffffffffffffffffffffffffff163b119050919050565b6000604051905090565b600080fd5b600080fd5b600073ffffffffffffffffffffffffffffffffffffffff82169050919050565b6000611a7282611a47565b9050919050565b611a8281611a67565b8114611a8d57600080fd5b50565b600081359050611a9f81611a79565b92915050565b6000819050919050565b611ab881611aa5565b8114611ac357600080fd5b50565b600081359050611ad581611aaf565b92915050565b60008060408385031215611af257611af1611a3d565b5b6000611b0085828601611a90565b9250506020611b1185828601611ac6565b9150509250929050565b611b2481611aa5565b82525050565b6000602082019050611b3f6000830184611b1b565b92915050565b60007fffffffff0000000000000000000000000000000000000000000000000000000082169050919050565b611b7a81611b45565b8114611b8557600080fd5b50565b600081359050611b9781611b71565b92915050565b600060208284031215611bb357611bb2611a3d565b5b6000611bc184828501611b88565b91505092915050565b60008115159050919050565b611bdf81611bca565b82525050565b6000602082019050611bfa6000830184611bd6565b92915050565b600060208284031215611c1657611c15611a3d565b5b6000611c2484828501611ac6565b91505092915050565b600081519050919050565b600082825260208201905092915050565b60005b83811015611c67578082015181840152602081019050611c4c565b83811115611c76576000848401525b50505050565b6000601f19601f8301169050919050565b6000611c9882611c2d565b611ca28185611c38565b9350611cb2818560208601611c49565b611cbb81611c7c565b840191505092915050565b60006020820190508181036000830152611ce08184611c8d565b905092915050565b600080fd5b7f4e487b7100000000000000000000000000000000000000000000000000000000600052604160045260246000fd5b611d2582611c7c565b810181811067ffffffffffffffff82111715611d4457611d43611ced565b5b80604052505050565b6000611d57611a33565b9050611d638282611d1c565b919050565b600067ffffffffffffffff821115611d8357611d82611ced565b5b602082029050602081019050919050565b600080fd5b6000611dac611da784611d68565b611d4d565b90508083825260208201905060208402830185811115611dcf57611dce611d94565b5b835b81811015611df85780611de48882611ac6565b845260208401935050602081019050611dd1565b5050509392505050565b600082601f830112611e1757611e16611ce8565b5b8135611e27848260208601611d99565b91505092915050565b600080fd5b600067ffffffffffffffff821115611e5057611e4f611ced565b5b611e5982611c7c565b9050602081019050919050565b82818337600083830152505050565b6000611e88611e8384611e35565b611d4d565b905082815260208101848484011115611ea457611ea3611e30565b5b611eaf848285611e66565b509392505050565b600082601f830112611ecc57611ecb611ce8565b5b8135611edc848260208601611e75565b91505092915050565b600080600080600060a08688031215611f0157611f00611a3d565b5b6000611f0f88828901611a90565b9550506020611f2088828901611a90565b945050604086013567ffffffffffffffff811115611f4157611f40611a42565b5b611f4d88828901611e02565b935050606086013567ffffffffffffffff811115611f6e57611f6d611a42565b5b611f7a88828901611e02565b925050608086013567ffffffffffffffff811115611f9b57611f9a611a42565b5b611fa788828901611eb7565b9150509295509295909350565b600060208284031215611fca57611fc9611a3d565b5b6000611fd884828501611a90565b91505092915050565b611fea81611a67565b82525050565b60006020820190506120056000830184611fe1565b92915050565b600067ffffffffffffffff82111561202657612025611ced565b5b602082029050602081019050919050565b600061204a6120458461200b565b611d4d565b9050808382526020820190506020840283018581111561206d5761206c611d94565b5b835b8181101561209657806120828882611a90565b84526020840193505060208101905061206f565b5050509392505050565b600082601f8301126120b5576120b4611ce8565b5b81356120c5848260208601612037565b91505092915050565b600080604083850312156120e5576120e4611a3d565b5b600083013567ffffffffffffffff81111561210357612102611a42565b5b61210f858286016120a0565b925050602083013567ffffffffffffffff8111156121305761212f611a42565b5b61213c85828601611e02565b9150509250929050565b600081519050919050565b600082825260208201905092915050565b6000819050602082019050919050565b61217b81611aa5565b82525050565b600061218d8383612172565b60208301905092915050565b6000602082019050919050565b60006121b182612146565b6121bb8185612151565b93506121c683612162565b8060005b838110156121f75781516121de8882612181565b97506121e983612199565b9250506001810190506121ca565b5085935050505092915050565b6000602082019050818103600083015261221e81846121a6565b905092915050565b60008060006060848603121561223f5761223e611a3d565b5b600061224d86828701611ac6565b935050602061225e86828701611ac6565b925050604061226f86828701611a90565b9150509250925092565b61228281611bca565b811461228d57600080fd5b50565b60008135905061229f81612279565b92915050565b600080604083850312156122bc576122bb611a3d565b5b60006122ca85828601611a90565b92505060206122db85828601612290565b9150509250929050565b600080604083850312156122fc576122fb611a3d565b5b600061230a85828601611a90565b925050602061231b85828601611a90565b9150509250929050565b600080600080600060a0868803121561234157612340611a3d565b5b600061234f88828901611a90565b955050602061236088828901611a90565b945050604061237188828901611ac6565b935050606061238288828901611ac6565b925050608086013567ffffffffffffffff8111156123a3576123a2611a42565b5b6123af88828901611eb7565b9150509295509295909350565b7f455243313135353a2062616c616e636520717565727920666f7220746865207a60008201527f65726f2061646472657373000000000000000000000000000000000000000000602082015250565b6000612418602b83611c38565b9150612423826123bc565b604082019050919050565b600060208201905081810360008301526124478161240b565b9050919050565b7f4e487b7100000000000000000000000000000000000000000000000000000000600052602260045260246000fd5b6000600282049050600182168061249557607f821691505b6020821081036124a8576124a761244e565b5b50919050565b7f455243313135353a207472616e736665722063616c6c6572206973206e6f742060008201527f6f776e6572206e6f7220617070726f7665640000000000000000000000000000602082015250565b600061250a603283611c38565b9150612515826124ae565b604082019050919050565b60006020820190508181036000830152612539816124fd565b9050919050565b7f426f6f6b53746f72653a206f6e6c7920636f6e7472616374206f776e6572206360008201527f616e207365742073746f726546726f6e74000000000000000000000000000000602082015250565b600061259c603183611c38565b91506125a782612540565b604082019050919050565b600060208201905081810360008301526125cb8161258f565b9050919050565b7f455243313135353a206163636f756e747320616e6420696473206c656e67746860008201527f206d69736d617463680000000000000000000000000000000000000000000000602082015250565b600061262e602983611c38565b9150612639826125d2565b604082019050919050565b6000602082019050818103600083015261265d81612621565b9050919050565b7f4e487b7100000000000000000000000000000000000000000000000000000000600052603260045260246000fd5b7f4e487b7100000000000000000000000000000000000000000000000000000000600052601160045260246000fd5b60006126cd82611aa5565b91507fffffffffffffffffffffffffffffffffffffffffffffffffffffffffffffffff82036126ff576126fe612693565b5b600182019050919050565b7f4d6574686f642063616e206f6e6c792062652063616c6c65642062792073746f60008201527f72655f66726f6e7420636f6e7472616374000000000000000000000000000000602082015250565b6000612766603183611c38565b91506127718261270a565b604082019050919050565b6000602082019050818103600083015261279581612759565b9050919050565b60006127a782611aa5565b91506127b283611aa5565b9250827fffffffffffffffffffffffffffffffffffffffffffffffffffffffffffffffff038211156127e7576127e6612693565b5b828201905092915050565b7f455243313135353a2063616c6c6572206973206e6f74206f776e6572206e6f7260008201527f20617070726f7665640000000000000000000000000000000000000000000000602082015250565b600061284e602983611c38565b9150612859826127f2565b604082019050919050565b6000602082019050818103600083015261287d81612841565b9050919050565b7f455243313135353a2069647320616e6420616d6f756e7473206c656e6774682060008201527f6d69736d61746368000000000000000000000000000000000000000000000000602082015250565b60006128e0602883611c38565b91506128eb82612884565b604082019050919050565b6000602082019050818103600083015261290f816128d3565b9050919050565b7f455243313135353a207472616e7366657220746f20746865207a65726f20616460008201527f6472657373000000000000000000000000000000000000000000000000000000602082015250565b6000612972602583611c38565b915061297d82612916565b604082019050919050565b600060208201905081810360008301526129a181612965565b9050919050565b7f455243313135353a20696e73756666696369656e742062616c616e636520666f60008201527f72207472616e7366657200000000000000000000000000000000000000000000602082015250565b6000612a04602a83611c38565b9150612a0f826129a8565b604082019050919050565b60006020820190508181036000830152612a33816129f7565b9050919050565b60006040820190508181036000830152612a5481856121a6565b90508181036020830152612a6881846121a6565b90509392505050565b7f455243313135353a206d696e7420746f20746865207a65726f2061646472657360008201527f7300000000000000000000000000000000000000000000000000000000000000602082015250565b6000612acd602183611c38565b9150612ad882612a71565b604082019050919050565b60006020820190508181036000830152612afc81612ac0565b9050919050565b6000604082019050612b186000830185611b1b565b612b256020830184611b1b565b9392505050565b7f455243313135353a2073657474696e6720617070726f76616c2073746174757360008201527f20666f722073656c660000000000000000000000000000000000000000000000602082015250565b6000612b88602983611c38565b9150612b9382612b2c565b604082019050919050565b60006020820190508181036000830152612bb781612b7b565b9050919050565b600081519050919050565b600082825260208201905092915050565b6000612be582612bbe565b612bef8185612bc9565b9350612bff818560208601611c49565b612c0881611c7c565b840191505092915050565b600060a082019050612c286000830188611fe1565b612c356020830187611fe1565b8181036040830152612c4781866121a6565b90508181036060830152612c5b81856121a6565b90508181036080830152612c6f8184612bda565b90509695505050505050565b600081519050612c8a81611b71565b92915050565b600060208284031215612ca657612ca5611a3d565b5b6000612cb484828501612c7b565b91505092915050565b60008160e01c9050919050565b600060033d1115612ce95760046000803e612ce6600051612cbd565b90505b90565b600060443d10612d7957612cfe611a33565b60043d036004823e80513d602482011167ffffffffffffffff82111715612d26575050612d79565b808201805167ffffffffffffffff811115612d445750505050612d79565b80602083010160043d038501811115612d61575050505050612d79565b612d7082602001850186611d1c565b82955050505050505b90565b7f455243313135353a207472616e7366657220746f206e6f6e204552433131353560008201527f526563656976657220696d706c656d656e746572000000000000000000000000602082015250565b6000612dd8603483611c38565b9150612de382612d7c565b604082019050919050565b60006020820190508181036000830152612e0781612dcb565b9050919050565b7f455243313135353a204552433131353552656365697665722072656a6563746560008201527f6420746f6b656e73000000000000000000000000000000000000000000000000602082015250565b6000612e6a602883611c38565b9150612e7582612e0e565b604082019050919050565b60006020820190508181036000830152612e9981612e5d565b9050919050565b600060a082019050612eb56000830188611fe1565b612ec26020830187611fe1565b612ecf6040830186611b1b565b612edc6060830185611b1b565b8181036080830152612eee8184612bda565b9050969550505050505056fea2646970667358221220f9640d8f13d312ee6aa0d4752079ee3c30e8e0e38e82272b6a799310f23dc3ca64736f6c634300080e003368747470733a2f2f6578616d706c652e636f6d2f6170692f7b69647d2e6a736f6e",
  "immutableReferences": {},
  "source": "// SPDX-License-Identifier: MIT\r\npragma solidity ^0.8.0;\r\nimport \"../node_modules/@openzeppelin/contracts/token/ERC1155/ERC1155.sol\";\r\nimport \"./StoreFront.sol\";\r\ncontract BookStore is ERC1155 {\r\n    uint256 private _currentBookVersionId;\r\n    StoreFront private _storeFront;\r\n    mapping (uint256 => BookVersion) private _bookVersions;\r\n\r\n    struct BookVersion{\r\n        uint price;\r\n        address currency;\r\n        address author;\r\n    }\r\n    \r\n    address private _owner;\r\n\r\n    constructor() ERC1155(\"https://example.com/api/{id}.json\"){\r\n         _currentBookVersionId = 1;\r\n         _owner = msg.sender;\r\n    }\r\n\r\n    function setStoreFront(address _storeFrontAddress) public {\r\n        require(msg.sender == _owner,\"BookStore: only contract owner can set storeFront\");\r\n         _storeFront = StoreFront(_storeFrontAddress);\r\n    }\r\n\r\n    function publish(uint256 _quantity, uint256 _price, address _currency) public {\r\n        _mint(msg.sender, _currentBookVersionId, _quantity, \"\");\r\n        _bookVersions[_currentBookVersionId] = BookVersion(_price, _currency,msg.sender);\r\n        // _bookVersionPrices[_currentBookVersionId]  = _price;\r\n        // _bookVersionCurrencies[_currentBookVersionId] = _currency;\r\n        _currentBookVersionId += 1;\r\n    }\r\n    \r\n    function transferFromAuthor(address _buyer,uint256 _bookVersionId) public{\r\n        require(msg.sender == address(_storeFront),\"Method can only be called by store_front contract\");\r\n        BookVersion memory bookVersion = _bookVersions[_bookVersionId];\r\n        safeTransferFrom(bookVersion.author, _buyer,_bookVersionId, 1, \"\");\r\n\r\n    }\r\n\r\n    function book_version_price(uint256 _bookVersionId) public view returns(uint256){\r\n        return _bookVersions[_bookVersionId].price;\r\n    }\r\n    function book_version_currency(uint256 _bookVersionId) public view returns(address){\r\n        return _bookVersions[_bookVersionId].currency;\r\n    }\r\n\r\n    function book_version_Author(uint256 _bookVersionId) public view returns(address){\r\n        return _bookVersions[_bookVersionId].author;\r\n    }\r\n}",
  "sourcePath": "/Users/judywang/Desktop/truffle/truffle/contracts/BookStore.sol",
  "compiler": {
    "name": "solc",
    "version": "0.8.14+commit.80d49f37.Emscripten.clang"
  },
  "schemaVersion": "3.4.6",
  "updatedAt": "2022-06-22T14:36:56.672Z",
  "networkType": "ethereum",
  "devdoc": {
    "kind": "dev",
    "methods": {
      "balanceOf(address,uint256)": {
        "details": "See {IERC1155-balanceOf}. Requirements: - `account` cannot be the zero address."
      },
      "balanceOfBatch(address[],uint256[])": {
        "details": "See {IERC1155-balanceOfBatch}. Requirements: - `accounts` and `ids` must have the same length."
      },
      "isApprovedForAll(address,address)": {
        "details": "See {IERC1155-isApprovedForAll}."
      },
      "safeBatchTransferFrom(address,address,uint256[],uint256[],bytes)": {
        "details": "See {IERC1155-safeBatchTransferFrom}."
      },
      "safeTransferFrom(address,address,uint256,uint256,bytes)": {
        "details": "See {IERC1155-safeTransferFrom}."
      },
      "setApprovalForAll(address,bool)": {
        "details": "See {IERC1155-setApprovalForAll}."
      },
      "supportsInterface(bytes4)": {
        "details": "See {IERC165-supportsInterface}."
      },
      "uri(uint256)": {
        "details": "See {IERC1155MetadataURI-uri}. This implementation returns the same URI for *all* token types. It relies on the token type ID substitution mechanism https://eips.ethereum.org/EIPS/eip-1155#metadata[defined in the EIP]. Clients calling this function must replace the `\\{id\\}` substring with the actual token type ID."
      }
    },
    "version": 1
  },
  "userdoc": {
    "kind": "user",
    "methods": {},
    "version": 1
  }
}