{
  "contractName": "StoreFront",
  "abi": [
    {
      "inputs": [],
      "stateMutability": "nonpayable",
      "type": "constructor"
    },
    {
      "inputs": [
        {
          "internalType": "address",
          "name": "_bookStoreAddress",
          "type": "address"
        }
      ],
      "name": "setBookStore",
      "outputs": [],
      "stateMutability": "nonpayable",
      "type": "function"
    },
    {
      "inputs": [
        {
          "internalType": "uint256",
          "name": "_bookVersionId",
          "type": "uint256"
        }
      ],
      "name": "purchaseFromAuthor",
      "outputs": [],
      "stateMutability": "nonpayable",
      "type": "function"
    }
  ],
  "bytecode": "0x608060405234801561001057600080fd5b5033600160006101000a81548173ffffffffffffffffffffffffffffffffffffffff021916908373ffffffffffffffffffffffffffffffffffffffff160217905550610785806100616000396000f3fe608060405234801561001057600080fd5b50600436106100365760003560e01c80631237ae4d1461003b578063f745199f14610057575b600080fd5b6100556004803603810190610050919061049a565b610073565b005b610071600480360381019061006c91906104fd565b610146565b005b600160009054906101000a900473ffffffffffffffffffffffffffffffffffffffff1673ffffffffffffffffffffffffffffffffffffffff163373ffffffffffffffffffffffffffffffffffffffff1614610103576040517f08c379a00000000000000000000000000000000000000000000000000000000081526004016100fa906105ad565b60405180910390fd5b806000806101000a81548173ffffffffffffffffffffffffffffffffffffffff021916908373ffffffffffffffffffffffffffffffffffffffff16021790555050565b60008060009054906101000a900473ffffffffffffffffffffffffffffffffffffffff1673ffffffffffffffffffffffffffffffffffffffff16633f9a9461836040518263ffffffff1660e01b81526004016101a291906105dc565b602060405180830381865afa1580156101bf573d6000803e3d6000fd5b505050506040513d601f19601f820116820180604052508101906101e3919061060c565b905060008060009054906101000a900473ffffffffffffffffffffffffffffffffffffffff1673ffffffffffffffffffffffffffffffffffffffff1663d3cbe6d7846040518263ffffffff1660e01b815260040161024191906105dc565b602060405180830381865afa15801561025e573d6000803e3d6000fd5b505050506040513d601f19601f82011682018060405250810190610282919061060c565b905060008060009054906101000a900473ffffffffffffffffffffffffffffffffffffffff1673ffffffffffffffffffffffffffffffffffffffff1663986402fb856040518263ffffffff1660e01b81526004016102e091906105dc565b602060405180830381865afa1580156102fd573d6000803e3d6000fd5b505050506040513d601f19601f82011682018060405250810190610321919061064e565b90508273ffffffffffffffffffffffffffffffffffffffff166323b872dd3384846040518463ffffffff1660e01b81526004016103609392919061068a565b6020604051808303816000875af115801561037f573d6000803e3d6000fd5b505050506040513d601f19601f820116820180604052508101906103a391906106f9565b5060008054906101000a900473ffffffffffffffffffffffffffffffffffffffff1673ffffffffffffffffffffffffffffffffffffffff16638b710ab033866040518363ffffffff1660e01b81526004016103ff929190610726565b600060405180830381600087803b15801561041957600080fd5b505af115801561042d573d6000803e3d6000fd5b5050505050505050565b600080fd5b600073ffffffffffffffffffffffffffffffffffffffff82169050919050565b60006104678261043c565b9050919050565b6104778161045c565b811461048257600080fd5b50565b6000813590506104948161046e565b92915050565b6000602082840312156104b0576104af610437565b5b60006104be84828501610485565b91505092915050565b6000819050919050565b6104da816104c7565b81146104e557600080fd5b50565b6000813590506104f7816104d1565b92915050565b60006020828403121561051357610512610437565b5b6000610521848285016104e8565b91505092915050565b600082825260208201905092915050565b7f53746f726546726f6e743a206f6e6c7920636f6e7472616374206f776e65722060008201527f63616e207365742073746f726546726f6e740000000000000000000000000000602082015250565b600061059760328361052a565b91506105a28261053b565b604082019050919050565b600060208201905081810360008301526105c68161058a565b9050919050565b6105d6816104c7565b82525050565b60006020820190506105f160008301846105cd565b92915050565b6000815190506106068161046e565b92915050565b60006020828403121561062257610621610437565b5b6000610630848285016105f7565b91505092915050565b600081519050610648816104d1565b92915050565b60006020828403121561066457610663610437565b5b600061067284828501610639565b91505092915050565b6106848161045c565b82525050565b600060608201905061069f600083018661067b565b6106ac602083018561067b565b6106b960408301846105cd565b949350505050565b60008115159050919050565b6106d6816106c1565b81146106e157600080fd5b50565b6000815190506106f3816106cd565b92915050565b60006020828403121561070f5761070e610437565b5b600061071d848285016106e4565b91505092915050565b600060408201905061073b600083018561067b565b61074860208301846105cd565b939250505056fea2646970667358221220f8f9e72d4392c2407c66770c4c0f987d196b4b125a72dfc7c2ab6b5728d484fa64736f6c634300080e0033",
  "immutableReferences": {},
  "source": "// SPDX-License-Identifier: MIT\npragma solidity >=0.4.22 <0.9.0;\nimport \"./BookStore.sol\";\nimport \"../node_modules/@openzeppelin/contracts/token/ERC20/ERC20.sol\";\n\ncontract StoreFront{\n\n    BookStore private _bookStore;\n    address private _owner;\n\n    constructor(){\n        _owner = msg.sender;\n    }\n\n    //TODO:Restrict access to onlyOwner\n    function setBookStore(address _bookStoreAddress) public {\n        require( msg.sender == _owner, \"StoreFront: only contract owner can set storeFront\");\n        _bookStore = BookStore(_bookStoreAddress);\n    }\n\n    function purchaseFromAuthor(uint256 _bookVersionId) public{\n        ERC20 purchaseToken = ERC20(_bookStore.book_version_currency(_bookVersionId));          \n\n        address author = _bookStore.book_version_Author(_bookVersionId);\n        uint256 price = _bookStore.book_version_price(_bookVersionId);\n\n        purchaseToken.transferFrom(msg.sender, author, price);\n\n        _bookStore.transferFromAuthor(msg.sender, _bookVersionId);\n    }\n}",
  "sourcePath": "/Users/judywang/Desktop/truffle/truffle/contracts/StoreFront.sol",
  "compiler": {
    "name": "solc",
    "version": "0.8.14+commit.80d49f37.Emscripten.clang"
  },
  "schemaVersion": "3.4.6",
  "updatedAt": "2022-06-22T14:36:56.692Z",
  "networkType": "ethereum",
  "devdoc": {
    "kind": "dev",
    "methods": {},
    "version": 1
  },
  "userdoc": {
    "kind": "user",
    "methods": {},
    "version": 1
  }
}